:1000000077C0000095C0000093C0000091C00000C0
:100010008FC000008DC000008BC0000089C00000B0
:1000200087C0000085C0000083C0000081C00000C0
:100030007FC000007DC000007BC0000079C00000D0
:1000400077C0000075C0000073C0000071C00000E0
:100050006FC000006DC000006BC0000069C00000F0
:1000600067C0000065C0000063C0000061C0000000
:100070005FC000005DC000005BC0000059C0000010
:1000800057C0000055C0000053C0000051C0000020
:100090004FC000004DC000004BC0000049C0000030
:1000A00047C0000045C0000043C0000041C0000040
:1000B0003FC000003DC000003BC0000039C0000050
:1000C00037C0000035C0000033C0000031C0000060
:1000D0002FC000002DC000002BC0000029C0000070
:1000E00027C000006364696E6F70737578585B0099
:1000F00011241FBECFEFD1E2DEBFCDBF00E00CBFA9
:1001000015E0A0E0B2E0EEE6FFE100E00BBF02C0C8
:1001100007900D92A639B107D9F728E0A6E9B5E016
:1001200001C01D92A033B207E1F7FAD20C94B50FCB
:1001300067CF86E4E1EAF5E0DF011D928A95E9F7F1
:1001400041E050E060E070E086E995E00E94310F08
:1001500046E450E061E070E081EA95E00C94310FF4
:10016000089541E050E060E070E086E995E00E948B
:10017000410F46E450E061E070E081EA95E00C94C4
:10018000410F0895CF92DF92EF92FF920F931F934A
:10019000CF93DF93D82E8B01C0E0D0E02EC08DE14D
:1001A0008C9FF0018D9FF00D1124E951FA4F808151
:1001B0008D1122C02DE12C9FC0012D9F900D112487
:1001C00044E050E0B80181509A4FE6D7892B09F0FE
:1001D00088C08DE18C9FF0018D9FF00D1124E951B5
:1001E000FA4F848D90E0268937898217930708F0AB
:1001F00084C0C0E0D0E077C021968091A00590E057
:10020000C817D90764F2C0E0D0E06DC0FE01EE0F60
:10021000FF1FEE0FFF1FEE0FFF1FEC1BFD0BEF5537
:10022000FA4F8081D8125BC0CE01880F991F880FCA
:10023000991F880F991F8C1B9D0B44E050E0B8015B
:100240008E559A4FA9D7892B09F049C0FE01EE0FB0
:10025000FF1FEE0FFF1FEE0FFF1FEC1BFD0BEF55F7
:10026000FA4F85819681009779F1FE01EE0FFF1F0D
:10027000EE0FFF1FEE0FFF1FEC1BFD0BEF55FA4FAC
:100280000197968385836DDF81E038C0CE010196AA
:10029000DE01AA0FBB1FAA0FBB1FAA0FBB1FAC1BFF
:1002A000BD0BAF55BA4FFC01EE0FFF1FEE0FFF1F46
:1002B000EE0FFF1FE81BF90BEF55FA4F27E00190F7
:1002C0000D922A95E1F7EC01C7010197C817D907EC
:1002D000ECF2CA94C092960544DF80E00FC02196EC
:1002E00002C0C0E0D0E0C0909605EC2CF12CCE15F9
:1002F000DF050CF48BCF80E001C081E0DF91CF916E
:100300001F910F91FF90EF90DF90CF9008950F9382
:100310001F93CF93DF93CDB7DEB727970FB6F8942F
:10032000DEBF0FBECDBF909196059A3048F5898308
:10033000FB0100811181228133810A831B832C837D
:100340003D835F834E8381E0890F80939605892FDB
:1003500090E0DC01AA0FBB1FAA0FBB1FAA0FBB1F97
:10036000A81BB90BAF55BA4F87E0FE01319601903B
:100370000D928A95E1F7F5DE84E092E085D603C020
:100380008AE192E081D627960FB6F894DEBF0FBEC1
:10039000CDBFDF91CF911F910F910895EF92FF9202
:1003A0000F931F93CF93DF93CDB7DEB727970FB689
:1003B000F894DEBF0FBECDBF8C0146E050E063E590
:1003C00072E000D7892B71F5CE0104969F938F932D
:1003D00001979F938F9301979F938F939E012F5F18
:1003E0003F4F79013F932F9303969F938F938AE515
:1003F00092E09F938F930A5F1F4F1F930F932DD708
:10040000B7018D81BFDE0FB6F894DEBF0FBECDBF42
:10041000882321F080E792E037D637C080E892E069
:1004200033D633C045E050E06FE872E0C801CAD669
:10043000892B41F5CE0105969F938F9301979F934A
:100440008F9301979F938F9301979F938F9301971A
:100450007C019F938F9306969F938F9385E992E0FB
:100460009F938F930B5F1F4F1F930F93F6D64D8172
:100470005E81B7018F814BDF0FB6F894DEBF0FBEF0
:10048000CDBF03C08FEA92E0FFD527960FB6F89450
:10049000DEBF0FBECDBFDF91CF911F910F91FF90B7
:1004A000EF90089580B3887F80BB81B3876081BB64
:1004B000D1D587EC92E0E8D5B8D33BDE6CD1789407
:1004C000089529B130E0082E02C0359527950A9489
:1004D000E2F720FD15C02FE73AE146E02150304019
:1004E0004040E1F700C0000029B130E0A90102C09E
:1004F000559547958A95E2F740FD04C081E008953F
:1005000080E0089580E0089580E0DBDF882371F0CB
:1005100080919A0590919B05019690939B058093FD
:100520009A05E7E9F5E080818F5F808381E0C9DF8C
:10053000882371F080919A0590919B050196909384
:100540009B0580939A05E7E9F5E080818F5F8083C2
:1005500082E0B7DF8823C1F080919A0590919B05D6
:10056000892B91F080919A0590919B05019790932A
:100570009B0580939A0580919705882329F0E7E9E8
:10058000F5E080818150808308950F931F93CF936E
:10059000DF93CDB7DEB7C456D1090FB6F894DEBFEE
:1005A0000FBECDBF8C0166ED72E003D6892B19F525
:1005B000E7E9F5E042813181208180919A059091AF
:1005C0009B051F924F931F923F931F922F939F93D0
:1005D0008F938CED92E09F938F938E010F5F1F4F4F
:1005E0001F930F930CD6C8014FD50FB6F894DEBFFA
:1005F0000FBECDBF89C045E050E06EE675E0C80192
:10060000E1D5892B09F059C0F801858190E0C097A8
:10061000278130E0205331098330910508F040C034
:1006200033230CF43DC023303105D4F582179307F2
:10063000B9F1FC01E956FA4F40814423F9F0FC017D
:10064000E956FA4F408141504083F901E956FA4F8B
:1006500040814F5F40833F932F939F938F9384E21A
:1006600093E09F938F93CE0101969F938F93C7D56D
:100670000FB6F894DEBF0FBECDBF1BC09F938F9304
:100680008FE493E09F938F93CE0101969F938F9376
:10069000B6D50F900F900F900F900F900F9009C04C
:1006A0008FE1EEE6F3E0DE01119601900D928A955E
:1006B000E1F7CE010196E8D427C047E050E06DE8AD
:1006C00073E0C8017FD5892B21F4C80107963AD47D
:1006D0001BC047E050E065E973E0C80173D5892B82
:1006E00021F4C80107965ADE0FC047E050E06DE9DB
:1006F00073E0C80167D5892B21F4C8010796C1D1E1
:1007000003C085EA93E0C0D4CC59DF4F0FB6F8940C
:10071000DEBF0FBECDBFDF91CF911F910F91089526
:10072000CF93DF93CDB7DEB7E2970FB6F894DEBF75
:100730000FBECDBFB7DEE1E6F0E080E88083108237
:1007400000E0E2DE8091C0008823DCF796D4182F09
:100750008DD41A3011F01D3061F4E1E0F0E0EC0FBF
:10076000FD1FE00FF11D1082CE0101960EDF00E0AB
:10077000E8CFE1E0F0E0EC0FFD1FE00FF11D10838A
:100780000F5FDFCF45E050E060E070E08BE298E083
:100790000C94410F089545E050E060E070E08BE27A
:1007A00098E00E94310F80912B0890912C080196BF
:1007B00099F488EE93E090932C0880932B0880E0C6
:1007C00090E006C0FC01E55DF74F21E02283019631
:1007D00083309105BCF3D6DF44E050E065E070E083
:1007E0008CE995E00C94310F08950F931F93CF93EC
:1007F000DF93CDB7DEB7E2970FB6F894DEBF0FBE3A
:10080000CDBF80919F058F9380919E058F9380919E
:100810009D058F9380919C058F9387EB93E09F9329
:100820008F938E010F5F1F4F1F930F93E8D4C80162
:100830002BD40FB6F894DEBF0FBECDBFE2960FB635
:10084000F894DEBF0FBECDBFDF91CF911F910F9106
:1008500008950F931F93CF93DF93CDB7DEB7E29741
:100860000FB6F894DEBF0FBECDBF8C0190932C085D
:1008700080932B0887DF80E090E04BC02DE1289F1C
:10088000F001299FF00D1124E951FA4F258921111A
:100890000BC02DE1289FF001299FF00D1124E95193
:1008A000FA4F178B068B34C02130A1F49801220F28
:1008B000331F200F311F36952795369527954DE12B
:1008C000489FF001499FF00D1124E951FA4F378BF1
:1008D000268B1EC02230E1F49801220F331F200F17
:1008E000311F3695279536952795A901440F551F39
:1008F000240F351F36952795369527954DE1489F4E
:10090000F001499FF00D1124E951FA4F378B268BE6
:1009100001962091A00530E0821793070CF4AECF2A
:10092000A5D11F930F938EEC93E09F938F938E012D
:100930000F5F1F4F1F930F9362D4C801A5D30F9071
:100940000F900F900F900F900F90E2960FB6F894C3
:10095000DEBF0FBECDBFDF91CF911F910F910895E4
:100960000F931F93CF93DF93CDB7DEB7E2970FB608
:10097000F894DEBF0FBECDBF182F062F833018F5B9
:10098000E82FF0E0E55DF74F6283FCDE002319F00D
:1009900083EE93E002C086EE93E09F938F931F92C5
:1009A0001F938AEE93E09F938F938E010F5F1F4FEB
:1009B0001F930F9324D4C80167D30FB6F894DEBFFA
:1009C0000FBECDBF03C08BE094E05ED3E2960FB6BE
:1009D000F894DEBF0FBECDBFDF91CF911F910F9175
:1009E00008950F931F93CF93DF93CDB7DEB7E297B0
:1009F0000FB6F894DEBF0FBECDBF182F20E030E059
:100A00002CC08DE1829FF001839FF00D1124E951EC
:100A1000FA4F808181131FC08DE1829FF001839F77
:100A2000F00D1124E951FA4F148E20D11F921F931B
:100A300088E294E09F938F938E010F5F1F4F1F9367
:100A40000F93DDD3C80120D30F900F900F900F901C
:100A50000F900F900BC02F5F3F4F8091A00590E04B
:100A60002817390774F284E494E00ED3E2960FB6A7
:100A7000F894DEBF0FBECDBFDF91CF911F910F91D4
:100A800008950F931F93CF93DF9300D0CDB7DEB7B8
:100A90008C0145E050E06DE574E094D3892BD1F4EE
:100AA000CE0101969F938F938BEA92E09F938F9351
:100AB0000B5F1F4F1F930F93D0D389819A81C9DE9B
:100AC00083ED92E0E1D20F900F900F900F900F9076
:100AD0000F9053C04AE050E063E674E0C80172D35F
:100AE000892BE1F4CE0101969F938F9302969F93F9
:100AF0008F938EE694E09F938F93065F1F4F1F9313
:100B00000F93ABD369818B812BDF83ED92E0BCD255
:100B10000FB6F894DEBF0FBECDBF2FC048E050E047
:100B200068E774E0C8014ED3892BC9F4CE01019661
:100B30009F938F9387E695E09F938F93085F1F4F56
:100B40001F930F938AD389814CDF83ED92E09CD26F
:100B50000F900F900F900F900F900F900EC061E8C4
:100B600074E0C80126D3892B29F43FDE83ED92E09F
:100B70008BD203C08AE894E087D20F900F900F9039
:100B8000DF91CF911F910F9108950F931F93CF93F2
:100B9000DF93CDB7DEB7E2970FB6F894DEBF0FBE96
:100BA000CDBF40919C0550919D0560919E0570912F
:100BB0009F05480F591F611D711D40939C0550935F
:100BC0009D0560939E0570939F0544E050E065E0AD
:100BD00070E08CE995E00E94410F80919F058F9312
:100BE00080919E058F9380919D058F9380919C05A8
:100BF0008F9387EA94E09F938F938E010F5F1F4F2F
:100C00001F930F93FCD2C8013FD20FB6F894DEBFFA
:100C10000FBECDBFE2960FB6F894DEBF0FBECDBFBC
:100C2000DF91CF911F910F91089541E050E060E076
:100C300070E080EA95E00E94310F4091A0058FEFAF
:100C4000840F843158F48DE1489FA001112461E0A4
:100C500070E087EE95E00C94310F08951092A00596
:100C600060E080E090E00C944A0F08956091A00548
:100C700080E090E00E944A0F4091A0058DE1489FDE
:100C8000A001112461E070E087EE95E00C94410F23
:100C900008950F931F93CF93DF93CDB7DEB7CF5453
:100CA000D1090FB6F894DEBF0FBECDBF9C01162F41
:100CB0009091A005943108F052C09F5F9BAB43E137
:100CC00050E0B901CE01C4968BD228961FAE28976A
:100CD00029961FAF29972B961FAE1EAE2B976096B5
:100CE0001FAE609700E010E00DC048D26AE070E0EF
:100CF000D7D1EBE4F0E0EC0FFD1FE00FF11F808394
:100D00000F5F1F4F0430110584F3A091A00581E00F
:100D10008A0F8093A0058DE1A89FD0011124A951CD
:100D2000BA4F8DE1FE01F39601900D928A95E1F79D
:100D30009DDF8BA91F928F9385EC94E09F938F93F7
:100D40008E010F5F1F4F1F930F9359D2C8019CD183
:100D50000F900F900F900F900F900F9003C08BED9E
:100D600094E092D1C15BDF4F0FB6F894DEBF0FBEA7
:100D7000CDBFDF91CF911F910F91089520E030E01A
:100D800032C09DE1929FF001939FF00D1124E95133
:100D9000FA4F9081981325C017C0C90101966DE1E3
:100DA000629FD001639FB00D1124A951BA4F689F73
:100DB000F001699FF00D1124E951FA4F2DE10190E6
:100DC0000D922A95E1F79C01CA010197281739076E
:100DD00024F371507093A00549DF85E095E054C17C
:100DE00008952F5F3F4F7091A005472F50E02417C3
:100DF00035073CF284E494E047C10895EF92FF92F6
:100E00000F931F93CF93DF93CDB7DEB7E2970FB663
:100E1000F894DEBF0FBECDBFF62EE72E40E050E0C7
:100E20002CC09DE1949FF001959FF00D1124E95194
:100E3000FA4F908198131FC08F01848D8F0D848F7E
:100E400015DF8F2D9E2DA1DEF801848D1F928F93CB
:100E500085E195E09F938F938E010F5F1F4F1F9346
:100E60000F93CDD1C80110D10F900F900F900F901C
:100E70000F900F900BC04F5F5F4F2091A00530E0A7
:100E80004217530774F284E494E0FED0E2960FB662
:100E9000F894DEBF0FBECDBFDF91CF911F910F91B0
:100EA000FF90EF900895EF92FF920F931F93CF93CF
:100EB000DF93CDB7DEB7C456D1090FB6F894DEBFC5
:100EC0000FBECDBF00E010E029C02DE1209FC00182
:100ED000219F900D1124FC01E951FA4F448D358971
:100EE00088519A4F20811F924F931F923F939F9357
:100EF0008F931F922F9382E395E09F938F93CE0160
:100F000001967C019F938F937AD1C701BDD00F5F6B
:100F10001F4F0FB6F894DEBF0FBECDBF8091A00566
:100F200090E0081719078CF2CC59DF4F0FB6F894F0
:100F3000DEBF0FBECDBFDF91CF911F910F91FF900C
:100F4000EF900895EF92FF920F931F93CF93DF934B
:100F5000CDB7DEB765970FB6F894DEBF0FBECDBF35
:100F60008C0144E050E06FE575E02CD1892BD1F481
:100F7000CE0145969F938F9344977C019F938F93C7
:100F800084E695E09F938F930C5F1F4F1F930F9301
:100F900064D16D89C7017DDE0FB6F894DEBF0FBE48
:100FA000CDBF4BC047E050E06CE675E0C8010AD108
:100FB000892BB1F4CE0101969F938F9387E695E03C
:100FC0009F938F93095F1F4F1F930F9346D1898182
:100FD000D5DE0F900F900F900F900F900F902DC0B7
:100FE00044E050E064E775E0C801ECD0892BD1F40F
:100FF000CE0101969F938F9344969F938F9386EA99
:1010000092E09F938F930C5F1F4F1F930F9325D1F7
:1010100069817A818D89F2DE0FB6F894DEBF0FBE4A
:10102000CDBF0BC069E775E0C801C3D0892B11F4AF
:101030003ADF03C08EE795E027D065960FB6F894A7
:10104000DEBF0FBECDBFDF91CF911F910F91FF90FB
:10105000EF9008951092C50083E38093C40088E167
:101060008093C10086E08093C20008959091C000F3
:1010700095FFFCCF8093C60008958091C00088231F
:10108000E4F78091C6000895CF93DF93EC0102C08E
:10109000EDDF219688818111FBCFDF91CF910895FB
:1010A00097FB072E16F4009406D077FD08D00BD0DE
:1010B00007FC05D03EF4909581959F4F089570955B
:1010C00061957F4F0895AA1BBB1B51E107C0AA1F62
:1010D000BB1FA617B70710F0A61BB70B881F991FD9
:1010E0005A95A9F780959095BC01CD0108958F92EE
:1010F0009F92AF92BF92CF92DF92EF92FF92CF93E7
:10110000DF93EC01688179818A819B81611571058A
:101110008105910521F464E279ED8BE597E02DE1FD
:1011200033EF41E050E0C4D649015A019B01AC01C4
:10113000A7EAB1E4D9D66B017C01ACEEB4EFA5010E
:101140009401DED6DC01CB018C0D9D1DAE1DBF1DB3
:10115000B7FF03C00197A109B04888839983AA8388
:10116000BB839F77DF91CF91FF90EF90DF90CF907F
:10117000BF90AF909F908F900895B9CF80E092E09C
:10118000B6CFA0E0B0E08093000290930102A0935C
:101190000202B09303020895FB01DC0104C08D91AB
:1011A0000190801921F441505040C8F7881B990BD9
:1011B0000895FB01DC018D91019080190110D9F394
:1011C000990B0895FB01DC014150504030F08D91A6
:1011D0000190801919F40020B9F7881B990B089524
:1011E000FB01DC014150504048F001900D9200207D
:1011F000C9F701C01D9241505040E0F708950F9388
:101200001F93CF93DF93CDB7DEB72E970FB6F89429
:10121000DEBF0FBECDBF0E891F8986E08C831A8387
:1012200009838FEF9FE79E838D83AE01465E5F4FFC
:10123000688D798DCE01019631D0EF81F885E00F70
:10124000F11F10822E960FB6F894DEBF0FBECDBFF1
:10125000DF91CF911F910F910895CF93DF93CDB779
:10126000DEB72E970FB6F894DEBF0FBECDBF85E078
:101270008C838C899D899A838983AE01485E5F4FF8
:101280006E897F89CE010196B8D32E960FB6F89459
:10129000DEBF0FBECDBFDF91CF9108952F923F9259
:1012A0004F925F926F927F928F929F92AF92BF9276
:1012B000CF92DF92EF92FF920F931F93CF93DF9322
:1012C000CDB7DEB72B970FB6F894DEBF0FBECDBFFC
:1012D0006C017B018A01FC0117821682838181FFE8
:1012E000BFC1CE0101963C01F6019381F70193FD48
:1012F000859193FF81917F01882309F4ADC18532E7
:1013000039F493FD859193FF81917F01853221F41A
:10131000B60190E0F0D4E8CF912C212C312CFFE1E4
:10132000F315D8F08B3279F038F4803279F08332CB
:10133000A1F4232D20611DC08D3261F0803369F44A
:10134000232D216016C0832D8260382EE32DE460AA
:101350003E2E2AC0F32DF8601DC037FC2DC020EDB5
:10136000280F2A3040F08E32B9F436FC75C1232D97
:101370002064322E19C036FE06C08AE0989E200DE9
:101380001124922E11C0EAE02E9E200D1124222E4F
:10139000F32DF0623F2E08C08C3621F4832D806837
:1013A000382E02C0883641F4F70193FD859193FFF2
:1013B00081917F018111B3CF982F9F7D95549330F8
:1013C00028F40C5F1F4F9FE399830DC0833631F0E3
:1013D000833771F0833509F055C020C0F801808152
:1013E00089830E5F1F4F88248394912C530112C070
:1013F0002801F2E04F0E511CF801A080B18036FEAA
:1014000003C0692D70E002C06FEF7FEFC5012AD4E1
:101410004C018201F32DFF773F2E15C0280122E0F9
:10142000420E511CF801A080B18036FE03C0692D28
:1014300070E002C06FEF7FEFC50109D44C01F32DBE
:10144000F0683F2E820133FC19C0822D90E088168F
:101450009906A0F4B60180E290E04DD42A94F5CF2D
:10146000F50137FC859137FE81915F01B60190E06F
:1014700042D421102A9421E0821A91088114910407
:1014800079F7E1C0843611F0893639F5F80137FE75
:1014900007C060817181828193810C5F1F4F08C0FA
:1014A00060817181072E000C880B990B0E5F1F4F16
:1014B000F32DFF763F2E97FF09C09095809570958C
:1014C00061957F4F8F4F9F4FF0683F2E2AE030E0AD
:1014D000A30166D4882E861844C0853731F4232DA5
:1014E0002F7EB22E2AE030E025C0932D997FB92EB1
:1014F0008F36C1F018F4883579F0AEC0803719F016
:10150000883721F0A9C0E92FE061BE2EB4FE0DC0DE
:10151000FB2DF460BF2E09C034FE0AC0292F2660BF
:10152000B22E06C028E030E005C020E130E002C065
:1015300020E132E0F801B7FE07C06081718182814D
:1015400093810C5F1F4F06C06081718180E090E045
:101550000E5F1F4FA30124D4882E8618FB2DFF7722
:101560003F2E36FE0DC0232D2E7FA22E891458F457
:1015700034FE0BC032FC09C0832D8E7EA82E05C020
:10158000B82CA32C03C0B82C01C0B92CA4FE0FC0EA
:10159000FE01E80DF11D8081803321F49A2D997EA2
:1015A000A92E09C0A2FE06C0B394B39404C08A2D2C
:1015B000867809F0B394A3FC10C0A0FE06C0B21454
:1015C00080F4280C922C9B180DC0B21458F4B6016C
:1015D00080E290E090D3B394F8CFB21418F42B18B3
:1015E00002C0982C212CA4FE0FC0B60180E390E02D
:1015F00082D3A2FE16C0A1FC03C088E790E002C01F
:1016000088E590E0B6010CC08A2D867851F0A1FEE5
:1016100002C08BE201C080E2A7FC8DE2B60190E03F
:101620006AD3891430F4B60180E390E064D39A94CD
:10163000F8CF8A94F301E80DF11D8081B60190E0A6
:101640005AD38110F6CF222009F44ECEB60180E2A3
:1016500090E051D32A94F7CFF6018681978102C09A
:101660008FEF9FEF2B960FB6F894DEBF0FBECDBF66
:10167000DF91CF911F910F91FF90EF90DF90CF906E
:10168000BF90AF909F908F907F906F905F904F90A2
:101690003F902F90089520FD09C0FC0123FD05C057
:1016A00022FF02C07383628351834083089544FD07
:1016B00017C046FD17C0AB01BC01DA01FB01AA0F40
:1016C000BB1FEE1FFF1F1094D1F74A0F5B1F6E1F49
:1016D0007F1FCB01BA01660F771F881F991F09C0B2
:1016E00033E001C034E0660F771F881F991F315027
:1016F000D1F7620F711D811D911D08950F931F93E6
:10170000CF93DF938C01C801B8D2EC0197FD06C0DE
:101710008BD2892BC1F7B801CE0129D3CE01DF913D
:10172000CF911F910F9108958F929F92AF92BF9288
:10173000EF92FF920F931F93CF93DF938C01D62FDD
:101740007A01B22E9AD29C0133272B32310531F027
:101750002D32310559F48B2D8068B82ED15011F4FB
:1017600080E061C0C80189D297FDFACFCB2DCD7F33
:101770002B2D2073F9F48033E9F4AA24AA94AD0E3A
:1017800009F43EC0C80179D297FD3AC09C012F7D73
:1017900033272835310541F4C264D25089F1C8019C
:1017A0006CD297FF07C02CC0B6FE02C0C26001C059
:1017B000C261DA2D812C912C540120ED280F2830A4
:1017C00078F0C4FF03C0B801D2D217C02A3040F06D
:1017D000C6FFF9CF2F7D3FEE320F3630A0F72750EE
:1017E0004C2FC501B40163DF4B015C01C260D150D5
:1017F00051F0C80142D297FFE0CFC1FD04C0B0CF85
:10180000812C912C5401C7FF08C0B094A0949094EF
:101810008094811C911CA11CB11C2C2FB501A4012A
:10182000C70139DF81E0DF91CF911F910F91FF90C8
:10183000EF90BF90AF909F908F9008955F926F92BE
:101840007F928F929F92AF92BF92CF92DF92EF9250
:10185000FF920F931F93CF93DF93CDB7DEB7A0977F
:101860000FB6F894DEBF0FBECDBF5C01962E7A0195
:10187000F9018E010F5F1F4F680180E2D8011D92B0
:101880008A95E9F7D50113968C9080E090E0612C61
:10189000712C30E061E070E083FC259183FE2191A2
:1018A0008F01522E211103C080E090E090C02E35B0
:1018B00011F4009751F1432F50E0481759073CF4B9
:1018C0002D3559F12D3219F4772009F103C0772015
:1018D00009F468C0452D469546954695D601A40F56
:1018E000B11D452D47708B0102C0000F111F4A9595
:1018F000E2F7A8015C91452B4C93651459F05614FE
:1019000010F45394E7CF5A94E5CF31E004C0772424
:10191000739401C0712C0196BFCF772019F08E818E
:1019200080628E83311103C08824839417C0F6012E
:101930009E012F5D3F4F8081809581932E173F0739
:10194000D1F7F2CFE114F10429F0D7018C93F7011C
:1019500031967F019A94812C9920E9F0C5018DD1AF
:1019600097FD17C0FC01FF2723E0F595E7952A9521
:10197000E1F7EC0DFD1D208130E0AC0147705527EB
:1019800002C0359527954A95E2F720FDDBCFB501DA
:10199000EED1811089CFE114F10411F0D7011C922E
:1019A000C80115C0422F469546954695D601A40F0D
:1019B000B11D422F47708B0102C0000F111F4A95C5
:1019C000E2F7A8015C91452B4C93622EA4CFA09620
:1019D0000FB6F894DEBF0FBECDBFDF91CF911F9140
:1019E0000F91FF90EF90DF90CF90BF90AF909F90BE
:1019F0008F907F906F905F9008955F926F927F922B
:101A00008F929F92AF92BF92CF92DF92EF92FF920E
:101A10000F931F93CF93DF936C01EB015A01FC01ED
:101A200017821682512CF601E380FE01E3FC8591BA
:101A3000E3FE8191182FEF01882309F4E0C090E0C4
:101A4000F3D0892B19F0C60159DEEDCF153241F4E0
:101A5000FE01E3FC1591E3FE1191EF01153271F4E3
:101A6000C6010BD197FDC9C0412F50E09C0133271F
:101A700024173507C1F2B6017AD1C1C01A3239F440
:101A8000E3FC1591E3FE1191EF0101E001C000E0DC
:101A9000F12C20ED210F2A3078F402606F2D70E0D8
:101AA00080E090E040E203DEF62EFE01E3FC1591BB
:101AB000E3FE1191EF01EDCF01FF03C0F11003C070
:101AC0009EC0FF24FA94183619F01C3651F010C04D
:101AD000FE01E3FC1591E3FE1191EF01183641F48C
:101AE00008600460FE01E3FC1591E3FE1191EF0133
:101AF000112309F484C0612F70E084EE90E09CD043
:101B0000892B09F47CC000FD07C0F501808091801D
:101B1000C50102965C0102C0812C912C1E3649F44D
:101B2000F6014681578160E070E0202FC401B3DDEB
:101B30007ACF1336A1F401FD02C0FF24F394C6014D
:101B40009CD097FD5AC08114910429F0F401808340
:101B5000C40101964C01FA94F110F1CF4AC01B3533
:101B600051F49E01A4016F2DC60168DEEC01892BA2
:101B700009F03FC039C0C601C1DD97FD3EC01F3628
:101B800049F128F4143621F1193639F125C01337FB
:101B900071F01537E9F020C08114910429F0F401A7
:101BA0006082C40101964C01FA94FF2059F0C601ED
:101BB00064D03C0197FD06C037D0892B69F3B6018C
:101BC000C301D5D081149104A1F0F401108211C099
:101BD000006203C0006101C00064202FA4016F2DCA
:101BE000C601A2DD811105C0F6018381807329F44D
:101BF00006C000FD18CF539416CF552019F0852D3F
:101C000090E002C08FEF9FEFDF91CF911F910F9176
:101C1000FF90EF90DF90CF90BF90AF909F908F900C
:101C20007F906F905F900895911118C1803219F0E4
:101C300089508550D0F70895FC010590061621F0D3
:101C40000020D9F7C00108953197CF010895FC0114
:101C50000590615070400110D8F7809590958E0FD7
:101C60009F1F0895FC016150704001900110D8F74A
:101C7000809590958E0F9F1F0895CF93DF93EC0171
:101C80002B8120FF33C026FF0AC02F7B2B838E8140
:101C90009F8101969F838E838A8190E029C022FFD5
:101CA0000FC0E881F9818081082E000C990B009704
:101CB00019F420622B831AC03196F983E8830EC091
:101CC000EA85FB85199597FF09C02B81019611F0D4
:101CD00080E201C080E1822B8B8308C02E813F818E
:101CE0002F5F3F4F3F832E83992702C08FEF9FEFD7
:101CF000DF91CF9108950F931F93CF93DF93FB0153
:101D0000238121FD03C08FEF9FEF2CC022FF16C05F
:101D100046815781248135814217530744F4A081BD
:101D2000B1819D012F5F3F4F318320838C932681AA
:101D300037812F5F3F4F3783268314C08B01EC011F
:101D4000FB010084F185E02D1995892BE1F6D8017E
:101D500016968D919C911797019617969C938E934A
:101D60001697CE01DF91CF911F910F910895FB013E
:101D7000238120FF12C026FD10C08F3F3FEF930745
:101D800061F082832F7D2064238326813781215057
:101D9000310937832683992708958FEF9FEF0895A0
:101DA000FA01AA27283051F1203181F1E8946F938C
:101DB0006E7F6E5F7F4F8F4F9F4FAF4FB1E03ED032
:101DC000B4E03CD0670F781F891F9A1FA11D680FD0
:101DD000791F8A1F911DA11D6A0F711D811D911D03
:101DE000A11D20D009F468943F912AE0269F112478
:101DF0003019305D3193DEF6CF010895462F4770DC
:101E0000405D4193B3E00FD0C9F7F6CF462F4F7036
:101E1000405D4A3318F0495D31FD4052419302D094
:101E2000A9F7EACFB4E0A69597958795779567953A
:101E3000BA95C9F700976105710508959B01AC013A
:101E40000A2E06945795479537952795BA95C9F761
:101E5000620F731F841F951FA01D0895992788275F
:101E60000895DC01CB01FC01F999FECF06C0F2BD5B
:101E7000E1BDF89A319600B40D9241505040B8F748
:101E80000895DC01CB0102C02D9105D04150504096
:101E9000D8F70895262FF999FECF1FBA92BD81BDBC
:101EA00020BD0FB6F894FA9AF99A0FBE01960895DC
:101EB000052E97FB16F400940FD057FD05D024D0C3
:101EC00007FC02D046F408C0509540953095219506
:101ED0003F4F4F4F5F4F0895909580957095619556
:101EE0007F4F8F4F9F4F089531D0A59F900DB49F86
:101EF000900DA49F800D911D11240895B7FFF4CF7C
:101F0000F3DF821B930B0895A1E21A2EAA1BBB1BC1
:101F1000FD010DC0AA1FBB1FEE1FFF1FA217B307B5
:101F2000E407F50720F0A21BB30BE40BF50B661FCB
:101F3000771F881F991F1A9469F76095709580958F
:101F400090959B01AC01BD01CF010895A29FB00106
:101F5000B39FC001A39F700D811D1124911DB29FDD
:0E1F6000700D811D1124911D0895F894FFCF7E
:101F6E000100000054656D706F72617279206163BB
:101F7E0063657373207365740A004572726F723AEB
:101F8E00204D6178696D756D206E756D626572207C
:101F9E006F662074656D706F726172792061636314
:101FAE0065737320636F6465732072656163686522
:101FBE00640A00636865636B2000256868752025D8
:101FCE006868752568687525686875256868750080
:101FDE00416363657373206772616E7465640A0092
:101FEE004163636573732064656E6965640A00748A
:101FFE00656D7020002568687520256868752568F0
:10200E00687525686875256868752025687500559A
:10201E006E6B6E6F776E2061636365737320636F93
:10202E006D6D616E640A0048656C6C6F2C205541B5
:10203E005254210D0A00636F756E7400546F7461F3
:10204E006C2070656F706C653A2025640D0A4772BE
:10205E006F756E6420666C6F6F723A2025640D0A80
:10206E00466972737420666C6F6F723A2025640D28
:10207E000A5365636F6E6420666C6F6F723A20252B
:10208E00640D0A004D6F76656420312070657273A1
:10209E006F6E2066726F6D20666C6F6F7220256496
:1020AE0020746F20666C6F6F722025640D0A0045D8
:1020BE0072726F723A204E6F2070656F706C652071
:1020CE006F6E20666C6F6F722025640D0A0045726C
:1020DE00726F723A20496E76616C696420666C6F1D
:1020EE006F72206E756D626572730D0A0074656E87
:1020FE00616E74200061636365737320006D616EA1
:10210E006167652000556E6B6E6F776E20636F6D25
:10211E006D616E640D0A00546F74616C206561729E
:10212E006E696E67733A2024256C750D0A00426144
:10213E0073652072656E742073657420746F20252C
:10214E00640A004F4E004F464600457363616C6152
:10215E00746F72206F6E20666C6F6F722025642014
:10216E0073657420746F2025730A004572726F7246
:10217E003A20496E76616C696420666C6F6F7220CE
:10218E006E756D6265720A0054656E616E742061C3
:10219E0063636F756E742025642064697361626C6D
:1021AE0065640A004572726F723A2054656E616EF4
:1021BE0074206E6F7420666F756E640A0072656EA1
:1021CE00742000657363616C61746F722000256802
:1021DE00687520256868750064697361626C652096
:1021EE00006561726E696E677300556E6B6E6F7708
:1021FE006E206D616E6167656D656E7420636F6DC7
:10220E006D616E640D0A00546F74616C20656172AD
:10221E006E696E677320757064617465643A20240C
:10222E00256C750A0054656E616E74206164646578
:10223E00642E2049443A2025640A004572726F725A
:10224E003A204D6178696D756D206E756D6265729F
:10225E00206F662074656E616E74732072656163A3
:10226E006865640A0054656E616E742072656D6FE8
:10227E007665640A0052656E7420706169642E2062
:10228E004E65772062616C616E63653A2024256429
:10229E000A0049443A2025642C204E616D653A208F
:1022AE0025732C20466C6F6F723A2025642C2052B9
:1022BE00656E7420506169643A202425640A0061B9
:1022CE0064642000257320256868750072656D6F43
:1022DE007665200070617920006C69737400556E0C
:1022EE006B6E6F776E2074656E616E7420636F6DAA
:0622FE006D616E640A0030
:00000001FF
